:100000000C9446000C9465000C9465000C946500FB
:100010000C9465000C9465000C9465000C946500CC
:100020000C9465000C9465000C9465000C946500BC
:100030000C9465000C945B020C9465000C946500B4
:100040000C9465000C9465000C9465000C9465009C
:100050000C9465000C9465000C9465000C9465008C
:100060000C9465000C9465000C9465000C9465007C
:100070000C9465000C9465000C9465000C9465006C
:100080000C9465000C9465000C94650011241FBE4F
:10009000CFEFD0E4DEBFCDBF15E0A0E0B1E0E2EFEE
:1000A000FFE200E00BBF02C007900D92A834B10739
:1000B000D9F725E0A8E4B5E001C01D92AD3CB20738
:1000C000E1F70E94B1130C94F7170C940000CF9342
:1000D000DF93CDB7DEB781E00E948E000000DF9194
:1000E000CF910895CF93DF93CDB7DEB784E690E04C
:1000F0000E94320188E30E948E0086E00E948E00FA
:100100008FE00E948E0081E00E948E008AE090E0E5
:100110000E9432010000DF91CF910895CF93DF93C9
:100120001F92CDB7DEB7898388E290E028E230E005
:10013000F90120812F7BFC01208382E290E029815C
:10014000FC01208388E290E028E230E0F901208180
:100150002068FC012083000088E290E028E230E083
:10016000F90120812F77FC01208382E090E00E943A
:10017000320100000F90DF91CF910895CF93DF936C
:100180001F92CDB7DEB7898388E290E028E230E0A5
:10019000F90120812064FC01208382E290E0298122
:1001A000FC01208388E290E028E230E0F901208120
:1001B0002068FC012083000088E290E028E230E023
:1001C000F90120812F77FC01208381E090E00E94DB
:1001D000320100000F90DF91CF910895CF93DF930C
:1001E00000D000D0CDB7DEB78A837C836B830E94BA
:1001F00067008A81898311C0898191E0980F998372
:100200000E941B018B819C819C012F5F3F4F3C838F
:100210002B83FC0180810E94BE008B819C81FC01AC
:100220008081882349F700000F900F900F900F9066
:10023000DF91CF910895CF93DF931F92CDB7DEB7B3
:1002400089838981813128F4898181580E948E00B7
:1002500004C0898181550E948E0000000F90DF91BB
:10026000CF910895CF93DF9300D000D000D0CDB7C9
:10027000DEB79E838D831A82198213C01C821B8273
:1002800006C000008B819C8101969C838B838B81AF
:100290009C8187309340ACF389819A8101969A833F
:1002A000898329813A818D819E812817390734F30A
:1002B000000026960FB6F894DEBF0FBECDBFDF91CB
:1002C000CF910895CF93DF9300D000D0CDB7DEB7A4
:1002D0008A837C836B838A818830E0F48A81882FCB
:1002E00090E00896880F880F880F0E948E00198270
:1002F0000EC08981882F90E02B813C81820F931F53
:10030000FC0180810E94BE0089818F5F8983898181
:10031000883078F300000F900F900F900F90DF91CE
:10032000CF910895CF93DF93CDB7DEB72C970FB65B
:10033000F894DEBF0FBECDBF6D837E838F83988719
:1003400029873A874B875C878D819E81AF81B885ED
:1003500029853A854B855C85BC01CD010E94C41579
:10036000DC01CB0189839A83AB83BC8389819A8129
:10037000AB81BC81892B8A2B8B2B29F489859A85AB
:10038000AB85BC8511C089859A85AB85BC858D837D
:100390009E83AF83B88789819A81AB81BC8189872D
:1003A0009A87AB87BC87D0CFBC01CD012C960FB606
:1003B000F894DEBF0FBECDBFDF91CF910895CF93EC
:1003C000DF9300D000D0CDB7DEB769837A838B830B
:1003D0009C8389819A81AB81BC8180930001909339
:1003E0000101A0930201B09303018091000190915B
:1003F0000101A0910201B0910301809349059093FE
:100400004A05A0934B05B0934C0500000F900F9048
:100410000F900F90DF91CF910895CF93DF93CDB7D9
:10042000DEB781E890E02BE0FC01208388E890E0D3
:100430002DE730E0FC01318320838FE690E022E05D
:10044000FC01208384E890E0FC01118210828091FD
:10045000000190910101A0910201B09103018093EC
:10046000490590934A05A0934B05B0934C058FE541
:1004700090E02FE530E0F90120812068FC01208325
:100480000000DF91CF910895CF93DF93CDB7DEB712
:1004900081E890E0FC0110820000DF91CF91089587
:1004A000CF93DF93CDB7DEB781E08093480500009E
:1004B000DF91CF9108951F920F9200905F000F92ED
:1004C000112400905B000F922F933F934F935F9303
:1004D0006F937F938F939F93AF93BF93EF93FF930C
:1004E000CF93DF93CDB7DEB78091490590914A0550
:1004F000A0914B05B0914C050197A109B1098093DA
:10050000490590934A05A0934B05B0934C05809103
:10051000490590914A05A0914B05B0914C05892B56
:100520008A2B8B2B91F40E945002809100019091B4
:100530000101A0910201B0910301809349059093BC
:100540004A05A0934B05B0934C050000DF91CF9175
:10055000FF91EF91BF91AF919F918F917F916F919B
:100560005F914F913F912F910F9000925B000F9000
:1005700000925F000F901F901895CF93DF9300D0EB
:100580001F92CDB7DEB789837B836A8389818A30E6
:1005900031F48A819B81BC018DE00E94BD0280EC18
:1005A00090E0FC018081882F90E080729927892B50
:1005B000B1F386EC90E02981FC01208380E090E09B
:1005C0000F900F900F90DF91CF910895CF93DF930D
:1005D000CDB7DEB78AE290E02AE230E0F90120816F
:1005E000206EFC0120830000DF91CF910895CF930E
:1005F000DF93CDB7DEB78BE290E02BE230E0F9017C
:1006000020812064FC0120838BE290E02BE230E02B
:10061000F90120812F7BFC0120830000DF91CF9125
:100620000895CF93DF9300D0CDB7DEB78BE290E093
:100630002BE230E0F90120812068FC01208381E079
:10064000898389818A95F1F789838BE290E02BE297
:1006500030E0F90120812F77FC01208381E08A833B
:100660008A818A95F1F78A8300000F900F90DF91BD
:10067000CF910895CF93DF9300D0CDB7DEB78A83B3
:1006800019821EC08A81882354F48BE290E02BE209
:1006900030E0F90120812062FC01208309C08BE257
:1006A00090E02BE230E0F90120812F7DFC012083D6
:1006B0000E94F7028A81880F8A8389818F5F8983EC
:1006C00089818830F8F20E94110300000F900F908A
:1006D000DF91CF910895CF93DF9300D01F92CDB7D4
:1006E000DEB719820BC01B821A828A819B81019717
:1006F000F1F79B838A8389818F5F89838981823324
:1007000090F300000F900F900F90DF91CF9108951C
:100710000F931F93CF93DF9300D000D0CDB7DEB7F8
:1007200069837A838B839C838091640590916505AE
:10073000A0916605B09167059C01AD0169817A8140
:100740008B819C810E94F515882309F477C020E0F5
:1007500030E0A90169817A818B819C810E94F51525
:10076000882351F481E990E021E930E0F90120810A
:100770002870FC01208309C081E990E021E930E084
:10078000F90120812360FC01208328E539E344E757
:100790005FE369817A818B819C810E94F5158823B2
:1007A00044F488E990E02FEF3FEFFC013183208390
:1007B00034C020E034E244EF56E469817A818B81D1
:1007C0009C810E945417181634F488E990E0FC01CB
:1007D0001182108222C008E910E020E030E040E001
:1007E00053E469817A818B819C810E945917DC01D5
:1007F000CB019C01AD0160E074E284EF9AE40E94B9
:10080000FA15DC01CB01BC01CD010E946C16DC01A4
:10081000CB010197F8019183808384E990E0FC018A
:100820001182108289819A81AB81BC818093640599
:1008300090936505A0936605B093670500000F903F
:100840000F900F900F90DF91CF911F910F9108950E
:10085000CF93DF93CDB7DEB780E990E020E4FC01D1
:10086000208381E990E02BE0FC01208360E070E0D0
:10087000CB010E9488030000DF91CF910895CF93B0
:10088000DF93CDB7DEB780E990E0FC01108281E90B
:1008900090E0FC0110820000DF91CF910895CF938A
:1008A000DF9300D0CDB7DEB79A83898389819A819F
:1008B000009719F0019731F09BC081E090E09A8396
:1008C000898399C080913A01882309F48BC01092E2
:1008D00053051DC080915305882F90E00E941B0195
:1008E00080914F05282F30E080915305882F90E0AC
:1008F000820F931F855C9E4FFC018081882F90E0C2
:100900000E94BE00809153058F5F809353058091B4
:1009100053058131F8F280914F058F5F80934F0529
:1009200080914F058B3211F410924F0580914D0547
:10093000843058F180914D05843001F582E1809337
:10094000530518C080915305882F90E00E941B0129
:1009500080915305882F90E042978A589E4FFC0162
:100960008081882F90E00E94BE00809153058F5FA8
:100970008093530580915305803220F380914D057B
:100980008630D0F010924D0517C082E18093530558
:100990000FC080915305882F90E00E941B0180E2D8
:1009A00090E00E94BE00809153058F5F80935305B5
:1009B00080915305803268F380914D058F5F80935D
:1009C0004D0581E190E00E941B0180E090E00E94D3
:1009D000BE0080E290E00E941B0181E090E00E9456
:1009E000BE0002C010924D0581E090E09A83898399
:1009F0001A821982000089819A810F900F90DF91ED
:100A0000CF910895CF93DF9300D0CDB7DEB79A830F
:100A1000898389819A818230910509F476C0833077
:100A200091052CF4009779F0019791F0C6C08430BD
:100A3000910509F496C0843091050CF47CC00597AB
:100A400009F4A5C0BAC081E090E09A838983B8C058
:100A500010925005109251051092520586E290E0D6
:100A6000FC018081882F90E0809590958F70992768
:100A7000019739F482E090E09A83898381E0809342
:100A8000500586E290E0FC018081882F90E08095FF
:100A900090958F709927029739F483E090E09A83BC
:100AA000898381E08093510586E290E0FC0180819A
:100AB000882F90E0809590958F709927049739F44E
:100AC00084E090E09A83898381E08093520586E2F6
:100AD00090E0FC018081882F90E0809590958F7048
:100AE0009927089769F490913A0181E0992309F0D8
:100AF00080E080933A0185E090E09A83898360C02A
:100B000081E090E09A8389835BC086E290E0FC01FB
:100B10008081882F90E0809590958F709927892B00
:100B200029F481E090E09A8389834AC082E090E0D2
:100B30009A83898345C086E290E0FC018081882FFA
:100B400090E0809590958F709927892B29F481E00A
:100B500090E09A83898334C083E090E09A8389830C
:100B60002FC086E290E0FC018081882F90E0809584
:100B700090958F709927892B29F481E090E09A83D2
:100B800089831EC084E090E09A83898319C086E23D
:100B900090E0FC018081882F90E0809590958F7087
:100BA0009927892B29F481E090E09A83898308C0F2
:100BB00085E090E09A83898303C01A82198200003D
:100BC00089819A810F900F90DF91CF910895CF93F3
:100BD000DF9300D0CDB7DEB79A83898389819A816C
:100BE0008230910509F48BC08330910534F400976D
:100BF00061F0019709F468C008C58330910509F4D4
:100C000017C4049709F4C2C400C580913A0188232F
:100C100009F057C080915B05882309F052C081E03C
:100C200090E09A83898310924E0581E08093BD0104
:100C300081E18093AA0581E08093530518C08091DB
:100C40005305882F90E00E941B0180915305882F47
:100C500090E001978C579E4FFC018081882F90E097
:100C60000E94BE00809153058F5F80935305809151
:100C70005305813220F385E090E00E941B0180E063
:100C800090E00E94BE008CE090E00E941B0180E09A
:100C900090E00E94BE0082E190E00E941B0181E092
:100CA00090E00E94BE008FE190E00E941B0181E075
:100CB00090E00E94BE0080E090E00E941B010000D6
:100CC000AAC41A821982A7C480913A01882311F01C
:100CD0001A82198280914E05843150F481E090E0AF
:100CE0009A83898380914E058F5F80934E0593C4CC
:100CF00082E090E09A838983109253058CC480919E
:100D00003A01882311F01A8219820E9467008091AB
:100D1000BD01813009F0C1C181E090E00E941B015A
:100D200081E390E00E94BE0082E090E00E941B01FF
:100D30008DE290E00E94BE0083E08093530518C0CE
:100D400080915305882F90E00E941B0180915305EC
:100D5000882F90E003978C559E4FFC018081882F4F
:100D600090E00E94BE00809153058F5F80935305F1
:100D700080915305883020F381E18093530518C09A
:100D800080915305882F90E00E941B0180915305AC
:100D9000882F90E0419782559E4FFC018081882FDB
:100DA00090E00E94BE00809153058F5F80935305B1
:100DB000809153058A3120F38AE190E00E941B0163
:100DC000809154059091550584369105F0F58091F8
:100DD0005405909155059C01ADECBCEC0E94E615C4
:100DE000969587959695879596958795C0960E9436
:100DF000BE008BE190E00E941B0140915405509190
:100E000055059A01ADECBCEC0E94E61596958795C8
:100E10009695879596958795880F991F9C01220F27
:100E2000331F220F331F820F931F9A01281B390B88
:100E3000C901C0960E94BE008CE190E00E941B0197
:100E400080E290E00E94BE001CC180915405909108
:100E50005505883E934008F06EC0809154059091EE
:100E6000550596958795969587959C01ABE7B4E1D6
:100E70000E94E61596958795C0960E94BE008BE16C
:100E800090E00E941B014091540550915505CA0104
:100E900096958795969587959C01ABE7B4E10E945E
:100EA000E6159695879564E6689F9001699F300DD9
:100EB0001124CA01821B930B892B69F480E390E013
:100EC0000E94BE008CE190E00E941B0180E390E054
:100ED0000E94BE00D6C04091540550915505CA01EC
:100EE00096958795969587959C01ABE7B4E10E940E
:100EF000E6159695879564E6689F9001699F300D89
:100F00001124CA01821B930B9C01ADECBCEC0E9426
:100F1000E615969587959695879596958795C096AB
:100F20000E94BE008CE190E00E941B0180E390E0F3
:100F30000E94BE00A6C080915405909155059695DB
:100F4000879596958795969587959C01A5ECB0E237
:100F50000E94E615929582958F7089279F70892748
:100F6000C0960E94BE008BE190E00E941B01409160
:100F7000540550915505CA01969587959695879584
:100F8000969587959C01A5ECB0E20E94E615929596
:100F900082958F7089279F70892768EE73E0869FFE
:100FA0009001879F300D969F300D1124CA01821B3E
:100FB000930B8436910528F480E390E00E94BE00F4
:100FC00030C04091540550915505CA0196958795BA
:100FD00096958795969587959C01A5ECB0E20E9421
:100FE000E615929582958F7089279F70892768EE04
:100FF00073E0869F9001879F300D969F300D1124DE
:10100000CA01821B930B96958795969587959C01AF
:10101000ABE7B4E10E94E61596958795C0960E94CD
:10102000BE008CE190E00E941B014091540550915C
:101030005505CA0196958795969587959C01ABE7CE
:10104000B4E10E94E6159695879564E6689F900145
:10105000699F300D1124CA01821B930B892B29F43F
:1010600080E390E00E94BE0004C085E390E00E940F
:10107000BE008DE190E00E941B0180E390E00E94A1
:10108000BE0080E290E00E941B0183E090E00E949D
:10109000BE0080E090E00E941B018091BD01823083
:1010A00009F0C1C181E090E00E941B0182E390E061
:1010B0000E94BE0082E090E00E941B018DE290E061
:1010C0000E94BE0083E08093530518C080915305B1
:1010D000882F90E00E941B0180915305882F90E09B
:1010E000039787559E4FFC018081882F90E00E94D6
:1010F000BE00809153058F5F809353058091530507
:10110000883020F381E18093530518C08091530506
:10111000882F90E00E941B0180915305882F90E05A
:10112000419782559E4FFC018081882F90E00E945C
:10113000BE00809153058F5F8093530580915305C6
:101140008A3120F38AE190E00E941B0180915605CC
:101150009091570584369105F0F580915605909150
:1011600057059C01ADECBCEC0E94E6159695879561
:101170009695879596958795C0960E94BE008BE1BF
:1011800090E00E941B0140915605509157059A012D
:10119000ADECBCEC0E94E6159695879596958795E3
:1011A00096958795880F991F9C01220F331F220F58
:1011B000331F820F931F9A01281B390BC901C09658
:1011C0000E94BE008CE190E00E941B0180E290E052
:1011D0000E94BE001CC18091560590915705883E23
:1011E000934008F06EC080915605909157059695F2
:1011F0008795969587959C01ABE7B4E10E94E6152B
:1012000096958795C0960E94BE008BE190E00E9463
:101210001B014091560550915705CA019695879537
:10122000969587959C01ABE7B4E10E94E6159695EB
:10123000879564E6689F9001699F300D1124CA016B
:10124000821B930B892B69F480E390E00E94BE001F
:101250008CE190E00E941B0180E390E00E94BE00C0
:10126000D6C04091560550915705CA01969587956D
:10127000969587959C01ABE7B4E10E94E61596959B
:10128000879564E6689F9001699F300D1124CA011B
:10129000821B930B9C01ADECBCEC0E94E61596956D
:1012A00087959695879596958795C0960E94BE00DE
:1012B0008CE190E00E941B0180E390E00E94BE0060
:1012C000A6C080915605909157059695879596955D
:1012D0008795969587959C01A5ECB0E20E94E6154E
:1012E000929582958F7089279F708927C0960E945A
:1012F000BE008BE190E00E941B0140915605509189
:101300005705CA01969587959695879596958795E1
:101310009C01A5ECB0E20E94E615929582958F7033
:1013200089279F70892768EE73E0869F9001879FC9
:10133000300D969F300D1124CA01821B930B843609
:10134000910528F480E390E00E94BE0030C04091F7
:10135000560550915705CA0196958795969587959C
:10136000969587959C01A5ECB0E20E94E6159295B2
:1013700082958F7089279F70892768EE73E0869F1A
:101380009001879F300D969F300D1124CA01821B5A
:10139000930B96958795969587959C01ABE7B4E15D
:1013A0000E94E61596958795C0960E94BE008CE136
:1013B00090E00E941B014091560550915705CA01CB
:1013C00096958795969587959C01ABE7B4E10E9429
:1013D000E6159695879564E6689F9001699F300DA4
:1013E0001124CA01821B930B892B29F480E390E01E
:1013F0000E94BE0004C085E390E00E94BE008DE123
:1014000090E00E941B0180E390E00E94BE0080E219
:1014100090E00E941B0184E090E00E94BE0080E00A
:1014200090E00E941B0183E090E09A838983F3C0DF
:1014300080913A01882319F01A821982E9C08091BB
:101440005005882379F08091BD01823009F0E0C019
:101450008091BD0181508093BD0182E090E09A832C
:101460008983D6C080915105882379F08091BD0190
:10147000813009F0CDC08091BD018F5F8093BD01A7
:1014800082E090E09A838983C3C0809152058823CB
:1014900009F477C084E090E09A8389830E94670012
:1014A00081E08093530518C080915305882F90E008
:1014B0000E941B0180915305882F90E00197825470
:1014C0009E4FFC018081882F90E00E94BE00809199
:1014D00053058F5F80935305809153058B3020F324
:1014E00081E18093530518C080915305882F90E0C7
:1014F0000E941B0180915305882F90E041978853EB
:101500009E4FFC018081882F90E00E94BE00809158
:1015100053058F5F8093530580915305883120F3E5
:1015200089E18093530518C080915305882F90E07E
:101530000E941B0180915305882F90E049978153A9
:101540009E4FFC018081882F90E00E94BE00809118
:1015500053058F5F80935305809153058E3120F39F
:1015600081E190E00E941B0182E090E00E94BE00B9
:1015700089E190E00E941B0182E090E00E94BE00A1
:1015800047C083E090E09A83898342C080913A010A
:10159000882319F01A8219823DC080915005882352
:1015A00041F08091AA058931A9F581E18093AA05CE
:1015B00031C080915105882341F08091AA05813185
:1015C00049F589E18093AA0525C0809152058823B9
:1015D00089F08091AA05813121F481E080935A0538
:1015E00003C082E080935A0581E080935B051A82F4
:1015F000198210C08091AA05882F90E00E941B01DB
:1016000084E090E09A83898305C01A82198203C01E
:10161000000001C0000089819A810F900F90DF9136
:10162000CF910895CF93DF9300D0CDB7DEB79A83E3
:10163000898389819A818230910509F495C083302C
:1016400091052CF4009759F00197D9F0BCC583306F
:10165000910509F418C3049709F49EC5B4C5109206
:101660005E05109259051092580580915B058823FC
:1016700029F081E090E09A838983A8C51A821982B3
:10168000A5C580913A01882329F010925B051A8242
:1016900019829CC50E94670081E08093530518C0A1
:1016A00080915305882F90E00E941B018091530583
:1016B000882F90E0019784529E4FFC018081882FF3
:1016C00090E00E94BE00809153058F5F8093530588
:1016D00080915305873020F387E090E00E941B0142
:1016E00080915E05882F90E0C0960E94BE0081E147
:1016F0008093530518C080915305882F90E00E9475
:101700001B0180915305882F90E0419789549E4F8B
:10171000FC018081882F90E00E94BE0080915305DB
:101720008F5F8093530580915305873120F387E1C4
:1017300090E00E941B018091580590915905C09638
:101740000E94BE0080E090E00E941B0180915A053B
:10175000813029F482E090E09A83898337C583E061
:1017600090E09A83898332C580913A01882329F0D9
:1017700010925B051A82198229C58091600589360D
:1017800008F472C08091BD01813041F52091580567
:101790003091590580915405909155058217930712
:1017A00008F046C0809158059091590590935505D1
:1017B000809354058091540590915505CC01A0E08B
:1017C000B0E0BC01CD010E94A216DC01CB01AC014E
:1017D000BD0186E090E00E94CC172AC08091BD0137
:1017E000823031F520915805309159058091560588
:1017F0009091570582179307D8F4809158059091DE
:101800005905909357058093560580915605909100
:101810005705CC01A0E0B0E0BC01CD010E94A216AA
:10182000DC01CB01AC01BD0187E090E00E94CC1748
:1018300084E090E09A8389838DE0809353050FC004
:1018400080915305882F90E00E941B0180E290E078
:101850000E94BE00809153058F5F80935305809155
:101860005305813168F3B2C480916105817088238A
:1018700009F004C280915C05813009F056C0809166
:101880005D05813081F580915E058F5F80935E05F7
:1018900080915805909159058A569F4F909359050C
:1018A000809358058DE08093530518C080915305AF
:1018B000882F90E00E941B0180915305882F90E0B3
:1018C0000D978C529E4FFC018081882F90E00E94E2
:1018D000BE00809153058F5F80935305809153051F
:1018E000813120F322C010925E058DE08093530574
:1018F00018C080915305882F90E00E941B018091B1
:101900005305882F90E00D9788529E4FFC018081EF
:10191000882F90E00E94BE00809153058F5F8093D6
:10192000530580915305813120F387E090E00E94B8
:101930001B0180915E058A3080F480915E05882FBE
:1019400090E0C0960E94BE0088E090E00E941B01DB
:1019500080E290E00E94BE0028C090915E058DEC70
:10196000989F812D1124869586958695882F90E0E5
:10197000C0960E94BE0088E090E00E941B019091FA
:101980005E058DEC989F812D112486958695869510
:10199000880F282F220F220F820FF92FF81B8F2F6D
:1019A000882F90E0C0960E94BE0087E190E00E94E0
:1019B0001B01809158059091590584369105F0F5E9
:1019C00080915805909159059C01ADECBCEC0E94AA
:1019D000E615969587959695879596958795C096E1
:1019E0000E94BE0088E190E00E941B0140915805D2
:1019F000509159059A01ADECBCEC0E94E615969504
:101A000087959695879596958795880F991F9C0140
:101A1000220F331F220F331F820F931F9A01281B9F
:101A2000390BC901C0960E94BE0089E190E00E9476
:101A30001B0180E290E00E94BE001CC1809158050D
:101A400090915905883E934008F06EC080915805EA
:101A50009091590596958795969587959C01ABE74A
:101A6000B4E10E94E61596958795C0960E94BE0047
:101A700088E190E00E941B01409158055091590562
:101A8000CA0196958795969587959C01ABE7B4E139
:101A90000E94E6159695879564E6689F9001699F78
:101AA000300D1124CA01821B930B892B69F480E34A
:101AB00090E00E94BE0089E190E00E941B0180E35B
:101AC00090E00E94BE00D6C0409158055091590543
:101AD000CA0196958795969587959C01ABE7B4E1E9
:101AE0000E94E6159695879564E6689F9001699F28
:101AF000300D1124CA01821B930B9C01ADECBCEC90
:101B00000E94E61596958795969587959695879563
:101B1000C0960E94BE0089E190E00E941B0180E314
:101B200090E00E94BE00A6C0809158059091590592
:101B30009695879596958795969587959C01A5ECA2
:101B4000B0E20E94E615929582958F7089279F706A
:101B50008927C0960E94BE0088E190E00E941B0188
:101B60004091580550915905CA01969587959695CB
:101B70008795969587959C01A5ECB0E20E94E615A5
:101B8000929582958F7089279F70892768EE73E000
:101B9000869F9001879F300D969F300D1124CA01BA
:101BA000821B930B8436910528F480E390E00E9419
:101BB000BE0030C04091580550915905CA01969514
:101BC000879596958795969587959C01A5ECB0E2AB
:101BD0000E94E615929582958F7089279F708927BC
:101BE00068EE73E0869F9001879F300D969F300DC1
:101BF0001124CA01821B930B96958795969587951C
:101C00009C01ABE7B4E10E94E61596958795C096D6
:101C10000E94BE0089E190E00E941B01409158059E
:101C200050915905CA0196958795969587959C017F
:101C3000ABE7B4E10E94E6159695879564E6689F48
:101C40009001699F300D1124CA01821B930B892BCF
:101C500029F480E390E00E94BE0004C085E390E098
:101C60000E94BE008AE190E00E941B0180E390E0A8
:101C70000E94BE0080E090E00E941B0182E090E0A4
:101C80009A838983A3C280913A01882329F0109214
:101C90005B051A8219829AC280916005813D08F421
:101CA00072C08091BD01813041F52091580530917D
:101CB000590580915405909155058217930708F0B6
:101CC00046C0809158059091590590935505809391
:101CD00054058091540590915505CC01A0E0B0E0E9
:101CE000BC01CD010E94A216DC01CB01AC01BD01FB
:101CF00086E090E00E94CC172AC08091BD0182301E
:101D000031F52091580530915905809156059091F3
:101D1000570582179307D8F480915805909159057B
:101D200090935705809356058091560590915705DD
:101D3000CC01A0E0B0E0BC01CD010E94A216DC0104
:101D4000CB01AC01BD0187E090E00E94CC1784E09C
:101D500090E09A8389838DE0809353050FC0809132
:101D60005305882F90E00E941B0180E290E00E94C2
:101D7000BE00809153058F5F80935305809153057A
:101D8000813168F323C280915C05813009F056C02F
:101D900080915D05813081F580915E058F5F809334
:101DA0005E0580915805909159058A569F4F9093F2
:101DB0005905809358058DE08093530518C0809194
:101DC0005305882F90E00E941B0180915305882FB6
:101DD00090E00D978C529E4FFC018081882F90E0FF
:101DE0000E94BE00809153058F5F809353058091C0
:101DF0005305813120F322C010925E058DE080935F
:101E0000530518C080915305882F90E00E941B0154
:101E100080915305882F90E00D9788529E4FFC01CA
:101E20008081882F90E00E94BE00809153058F5FD3
:101E30008093530580915305813120F387E090E032
:101E40000E941B0180915E058A3080F480915E05BE
:101E5000882F90E0C0960E94BE0088E090E00E942B
:101E60001B0180E290E00E94BE0028C090915E05B8
:101E70008DEC989F812D1124869586958695882FC7
:101E800090E0C0960E94BE0088E090E00E941B0196
:101E900090915E058DEC989F812D112486958695F5
:101EA0008695880F282F220F220F820FF92FF81BFB
:101EB0008F2F882F90E0C0960E94BE0087E190E0AF
:101EC0000E941B0180915805909159058436910517
:101ED000F0F580915805909159059C01ADECBCEC52
:101EE0000E94E61596958795969587959695879580
:101EF000C0960E94BE0088E190E00E941B014091C4
:101F00005805509159059A01ADECBCEC0E94E615BC
:101F1000969587959695879596958795880F991F9D
:101F20009C01220F331F220F331F820F931F9A0130
:101F3000281B390BC901C0960E94BE0089E190E0C0
:101F40000E941B0180E290E00E94BE001CC18091B3
:101F5000580590915905883E934008F06EC08091D5
:101F600058059091590596958795969587959C016A
:101F7000ABE7B4E10E94E61596958795C0960E945E
:101F8000BE0088E190E00E941B01409158055091ED
:101F90005905CA0196958795969587959C01ABE75B
:101FA000B4E10E94E6159695879564E6689F9001D6
:101FB000699F300D1124CA01821B930B892B69F490
:101FC00080E390E00E94BE0089E190E00E941B0146
:101FD00080E390E00E94BE00D6C040915805509129
:101FE0005905CA0196958795969587959C01ABE70B
:101FF000B4E10E94E6159695879564E6689F900186
:10200000699F300D1124CA01821B930B9C01ADEC1A
:10201000BCEC0E94E61596958795969587959695C2
:102020008795C0960E94BE0089E190E00E941B0146
:1020300080E390E00E94BE00A6C080915805909178
:1020400059059695879596958795969587959C01C0
:10205000A5ECB0E20E94E615929582958F708927D3
:102060009F708927C0960E94BE0088E190E00E9480
:102070001B014091580550915905CA0196958795C5
:1020800096958795969587959C01A5ECB0E20E9460
:10209000E615929582958F7089279F70892768EE43
:1020A00073E0869F9001879F300D969F300D11241D
:1020B000CA01821B930B8436910528F480E390E0DB
:1020C0000E94BE0030C04091580550915905CA0188
:1020D0009695879596958795969587959C01A5ECFD
:1020E000B0E20E94E615929582958F7089279F70C5
:1020F000892768EE73E0869F9001879F300D969F39
:10210000300D1124CA01821B930B969587959695E5
:1021100087959C01ABE7B4E10E94E61596958795FB
:10212000C0960E94BE0089E190E00E941B01409190
:10213000580550915905CA019695879596958795AA
:102140009C01ABE7B4E10E94E6159695879564E69D
:10215000689F9001699F300D1124CA01821B930B67
:10216000892B29F480E390E00E94BE0004C085E33F
:1021700090E00E94BE008AE190E00E941B0180E393
:1021800090E00E94BE0080E090E00E941B0183E08E
:1021900090E09A8389831AC080913A01882329F0BC
:1021A00010925B051A82198211C080915205882312
:1021B00029F010925B051A82198208C084E090E031
:1021C0009A83898303C01A821982000089819A81C7
:1021D0000F900F90DF91CF910895CF93DF9300D0B0
:1021E000CDB7DEB79A83898389819A818230910540
:1021F00009F45BC0833091052CF4009759F00197E6
:10220000C9F0BAC18330910509F4FCC0049709F400
:10221000A0C1B2C181E090E09A8389831092AB059E
:102220008FEF8093CC0510925F051092600510929D
:102230006105A5C18BE290E02091CC052095FC01C1
:1022400020838091AB05882F90E08D519E4FFC013B
:1022500080810E943A038091AB058F5F8093AB052C
:102260008091AB05883010F01092AB0580915B0532
:102270008823A9F080913A01882389F480E00E94A4
:102280003A0380915A05813029F482E090E09A83E4
:1022900089830AC083E090E09A83898305C081E046
:1022A00090E09A8389836BC16AC180913A01882347
:1022B00009F0A5C0809161058170882309F086C06E
:1022C00080915F05882F90E085549D4FFC018081AF
:1022D0000E943A038BE290E020916005222F30E0CB
:1022E00029533D4FF9012081222F30E02D533D4FDE
:1022F000F90120812095FC01208380915F058F5F8B
:1023000080935F05809160058F5F80936005809169
:102310005F05882F90E0019785549D4FFC018081D7
:10232000813009F051C081E080935C0580916005A7
:10233000882F90E0019789539D4FFC018081882F61
:1023400090E08D539D4FFC018081813041F480915C
:102350005205882321F081E080935D0537C080918C
:102360006005882F90E0019789539D4FFC01808183
:10237000882F90E08D539D4FFC018081843041F483
:1023800080915105882321F081E080935D051EC076
:1023900080916005882F90E0019789539D4FFC0143
:1023A0008081882F90E08D539D4FFC01808180318A
:1023B00041F480915005882321F081E080935D05F0
:1023C00005C010925D0502C010925C058091610508
:1023D0008F5F8093610580915F05883011F41092C2
:1023E0005F0580916005893629F484E090E09A8346
:1023F0008983C5C082E090E09A838983C0C01A8235
:102400001982BDC080913A01882309F09FC0809154
:102410005F05882F90E085549D4FFC0180810E94CC
:102420003A038BE290E020916005222F30E027569E
:102430003C4FF9012081222F30E02D533D4FF9010F
:1024400020812095FC01208380915F058F5F809320
:102450005F05809160058F5F8093600580915F05C7
:10246000882F90E0019785549D4FFC018081813039
:1024700009F051C081E080935C0580916005882F50
:1024800090E0019787569C4FFC018081882F90E057
:102490008D539D4FFC018081813041F48091520524
:1024A000882321F081E080935D0537C0809160052D
:1024B000882F90E0019787569C4FFC018081882FE0
:1024C00090E08D539D4FFC018081843041F48091D8
:1024D0005105882321F081E080935D051EC0809125
:1024E0006005882F90E0019787569C4FFC01808102
:1024F000882F90E08D539D4FFC018081803141F405
:1025000080915005882321F081E080935D0505C00E
:1025100010925D0502C010925C05809161058F5F8D
:102520008093610580915F05883011F410925F05FA
:1025300080916005813D29F484E090E09A8389834D
:102540001EC083E090E09A83898319C01A821982A1
:1025500016C080913A01882361F480915B0588233D
:1025600019F41A8219820BC084E090E09A8389835F
:1025700006C01A82198203C01A821982000089815A
:102580009A810F900F90DF91CF910895CF93DF93B1
:1025900000D0CDB7DEB79A83898389819A81823052
:1025A0009105A9F1833091052CF4009759F001971A
:1025B00099F0CCC08330910509F470C0049709F4F8
:1025C000B4C0C4C060E070E0CB010E94880381E029
:1025D00090E09A838983BEC01092620510926305D1
:1025E00080915B05882371F08091BD01813029F4D1
:1025F00082E090E09A838983ADC083E090E09A8383
:102600008983A8C081E090E09A838983A3C08091E8
:102610003A01882309F03FC0809162058F5F809363
:102620006205809162058370882381F5809163053E
:10263000882F90E0880F991F85519E4FFC01808163
:102640009181CC01A0E0B0E0BC01CD010E94A216B6
:10265000DC01CB01BC01CD010E94880380916305A0
:102660008F5F8093630580916305843351F484E028
:1026700090E09A83898360E070E0CB010E94880338
:1026800069C082E090E09A83898364C082E090E030
:102690009A8389835FC01A8219825CC080913A0153
:1026A000882309F03FC0809162058F5F80936205A7
:1026B000809162058370882381F580916305882F5E
:1026C00090E0880F991F8D5A9D4FFC018081918168
:1026D000CC01A0E0B0E0BC01CD010E94A216DC015B
:1026E000CB01BC01CD010E948803809163058F5FFF
:1026F0008093630580916305843351F484E090E016
:102700009A83898360E070E0CB010E94880322C035
:1027100083E090E09A8389831DC083E090E09A83F0
:10272000898318C01A82198215C080913A018823C2
:1027300011F01A82198284E090E09A838983809153
:102740005B05882331F41A82198203C01A82198228
:1027500001C0000089819A810F900F90DF91CF9185
:1027600008950F931F93CF93DF93CDB7DEB7619793
:102770000FB6F894DEBF0FBECDBF81E290E02FEF21
:10278000FC01208382E290E0FC01108284E290E070
:102790002FEFFC01208385E290E0FC01108287E2AC
:1027A00090E020EFFC01208388E290E02FE0FC0124
:1027B00020838AE290E02FEFFC0120838BE290E0FF
:1027C000FC0110828CE0EBE3F5E0DE01169601904F
:1027D0000D928A95E1F786E090E09C838B838FEFE2
:1027E0008D8386E090E00E94C617DC01CB01BC011E
:1027F000CD010E947316DC01CB01909355058093A7
:10280000540587E090E00E94C617DC01CB01BC01B3
:10281000CD010E947316DC01CB0190935705809384
:1028200056058D818093680588EC90E0A0E0B0E0CB
:102830008093690590936A05A0936B05B0936C052E
:102840008091690590916A05A0916B05B0916C0526
:1028500080936D0590936E05A0936F05B0937005FE
:102860008FE494E090937205809371051092730544
:1028700082E390E0A0E0B0E080937405909375054A
:10288000A0937605B09377058091690590916A05CC
:10289000A0916B05B0916C058093780590937905B4
:1028A000A0937A05B0937B0582E095E090937D0537
:1028B00080937C0510927E0582E390E0A0E0B0E07A
:1028C00080937F0590938005A0938105B093820546
:1028D0008091690590916A05A0916B05B0916C0596
:1028E0008093830590938405A0938505B093860516
:1028F00087EE95E09093880580938705109289056F
:1029000084E690E0A0E0B0E080938A0590938B0588
:10291000A0938C05B0938D058091690590916A050F
:10292000A0916B05B0916C0580938E0590938F05F7
:10293000A0939005B093910582E19BE0909393055D
:10294000809392051092940584E690E0A0E0B0E0B8
:102950008093950590939605A0939705B09398055D
:102960008091950590919605A0919705B091980555
:102970008093990590939A05A0939B05B0939C052D
:102980008DEE90E190939E0580939D0510929F059A
:1029900084E690E0A0E0B0E08093A0059093A105CC
:1029A000A093A205B093A3058091A0059091A105E5
:1029B000A091A205B091A3058093A4059093A505CD
:1029C000A093A605B093A70586EC92E19093A90584
:1029D0008093A80562E370E080E090E00E94DF0150
:1029E0000E940D0262E171E080E090E00E946201CD
:1029F0006AE171E081E090E00E94620162E271E0D0
:102A000082E090E00E9462016AE271E083E090E07F
:102A10000E94620162E371E084E090E00E94620142
:102A20000E9472000E94E6020E9428041A82198203
:102A30009BC089819A81880F991F9E012F5F3F4F0C
:102A4000820F931F0596FC0180819181FC012581F5
:102A500036814781508589819A81880F991FBE01EF
:102A60006F5F7F4F860F971F0596FC0180819181D4
:102A7000FC0181819281A381B481281739074A071B
:102A80005B0708F445C089819A81880F991F9E01D0
:102A90002F5F3F4F820F931F0596FC01008111812C
:102AA00089819A81880F991F9E012F5F3F4F820F66
:102AB000931F0596FC0180819181FC01218532855F
:102AC00089819A81880F991FAE014F5F5F4F840FF4
:102AD000951F0596FC0180819181FC018081082E63
:102AE000000C990BF9010995F801808389819A817D
:102AF000880F991F9E012F5F3F4F820F931F0596EE
:102B0000FC0180819181FC0115821682178210865A
:102B100089819A81880F991F9E012F5F3F4F820FF5
:102B2000931F0596FC012081318189819A81880F4C
:102B3000991FAE014F5F5F4F840F951F0596FC01F3
:102B400080819181FC0185819681A781B085C296A3
:102B5000A11DB11DF90185839683A783B087898163
:102B60009A8101969A83898329813A818B819C81FC
:102B70002817390708F45DCF0000809148058823A5
:102B8000E1F31092480552CFA1E21A2EAA1BBB1BFB
:102B9000FD010DC0AA1FBB1FEE1FFF1FA217B30729
:102BA000E407F50720F0A21BB30BE40BF50B661F3F
:102BB000771F881F991F1A9469F760957095809503
:102BC00090959B01AC01BD01CF010895A29FB0017A
:102BD000B39FC001A39F700D811D1124911DB29F51
:102BE000700D811D1124911D08950E94DF1608F4B7
:102BF00081E008950E940E160C941A170E94131774
:102C000058F00E940C1740F029F45F3F29F00C9413
:102C1000031751110C944E170C9409170E942B178F
:102C200068F39923B1F3552391F3951B550BBB27FB
:102C3000AA2762177307840738F09F5F5F4F220F40
:102C4000331F441FAA1FA9F335D00E2E3AF0E0E837
:102C500032D091505040E695001CCAF72BD0FE2F81
:102C600029D0660F771F881FBB1F26173707480715
:102C7000AB07B0E809F0BB0B802DBF01FF279358CD
:102C80005F4F3AF09E3F510578F00C9403170C9477
:102C90004E175F3FE4F3983ED4F38695779567959A
:102CA000B795F7959F5FC9F7880F911D9695879502
:102CB00097F90895E1E0660F771F881FBB1F621721
:102CC00073078407BA0720F0621B730B840BBA0BDF
:102CD000EE1F88F7E09508950E9473166894B1116D
:102CE0000C944E1708950E94331788F09F5798F060
:102CF000B92F9927B751B0F0E1F0660F771F881F01
:102D0000991F1AF0BA95C9F714C0B13091F00E941A
:102D10004D17B1E008950C944D17672F782F882731
:102D2000B85F39F0B93FCCF3869577956795B39541
:102D3000D9F73EF490958095709561957F4F8F4FB0
:102D40009F4F0895E89409C097FB3EF490958095B5
:102D5000709561957F4F8F4F9F4F9923A9F0F92F61
:102D600096E9BB279395F695879577956795B795DF
:102D7000F111F8CFFAF4BB0F11F460FF1BC06F5FC5
:102D80007F4F8F4F9F4F16C0882311F096E911C0D7
:102D9000772321F09EE8872F762F05C0662371F0F8
:102DA00096E8862F70E060E02AF09A95660F771F0C
:102DB000881FDAF7880F9695879597F90895990FE8
:102DC0000008550FAA0BE0E8FEEF16161706E807F5
:102DD000F907C0F012161306E407F50798F0621B16
:102DE000730B840B950B39F40A2661F0232B242BEB
:102DF000252B21F408950A2609F4A140A6958FEF0A
:102E0000811D811D089597F99F6780E870E060E05B
:102E100008959FEF80EC089500240A941616170673
:102E200018060906089500240A94121613061406BB
:102E300005060895092E0394000C11F4882352F01E
:102E4000BB0F40F4BF2B11F460FF04C06F5F7F4FD6
:102E50008F4F9F4F089557FD9058440F551F59F0BD
:102E60005F3F71F04795880F97FB991F61F09F3F77
:102E700079F087950895121613061406551FF2CFA0
:102E80004695F1DF08C0161617061806991FF1CFF0
:102E900086957105610508940895E894BB27662717
:102EA0007727CB0197F908950E94DF1608F48FEF7A
:102EB00008950E946C170C941A170E940C1738F092
:102EC0000E94131720F0952311F00C9403170C9413
:102ED000091711240C944E170E942B1770F3959F1D
:102EE000C1F3950F50E0551F629FF001729FBB2701
:102EF000F00DB11D639FAA27F00DB11DAA1F649F9D
:102F00006627B00DA11D661F829F2227B00DA11D4F
:102F1000621F739FB00DA11D621F839FA00D611DD5
:102F2000221F749F3327A00D611D231F849F600DF6
:102F3000211D822F762F6A2F11249F5750409AF01F
:102F4000F1F088234AF0EE0FFF1FBB1F661F771FAB
:102F5000881F91505040A9F79E3F510580F00C9476
:102F600003170C944E175F3FE4F3983ED4F3869515
:102F700077956795B795F795E7959F5FC1F7FE2B16
:102F8000880F911D9695879597F90895A6E1B0E071
:102F900044E050E00C94DB17242F0E94EA17252F01
:102FA0000E94EA170C94D4170E94E917272F0C945B
:102FB000EA17DC01CB01FC01F999FECF06C0F2BD96
:102FC000E1BDF89A319600B40D9241505040B8F7E7
:102FD0000895262FF999FECF1FBA92BD81BD20BD5D
:102FE0000FB6F894FA9AF99A0FBE01960895F894DC
:022FF000FFCF11
:102FF200010000000000000200000000BD0200000D
:10300200000004060504040C1C18010305090B0B3F
:10301200181800040A11110A0400181412111112CE
:10302200141803050911110905030120202020208D
:103032002020202020202020202057454C434F4D87
:103042004520544F204252454144424F4152442070
:103052004845524F212120202020202020202020BE
:1030620020202020202050524553532053544152B7
:1030720054212121202020202020534F4E47202060
:103082002020202020202053454C454354494F4EB8
:10309200212020206265616E7362696E64794849FD
:1030A2002D53434F52453A53434F52453A014449F7
:1030B20046464943554C5459204E4F524D414C209F
:1030C20048415244204869744D697373434F4D42DD
:1030D2004F3A000103070F1F3F7FFF0B02D201B8D7
:1030E20001D201B8015D0105010501250105012596
:1030F2000149015D010B020B020B024B020B024B59
:10310200029302BA020B020B020B02D201B801882F
:10311200015D010B020B020B020B025D0100005D5F
:103122000100005D0100005D01000005018801B899
:103132000188015D015D015D015D015D015D015D72
:10314200015D01B801B8015D015D01050125015D67
:103152000100005D01250105015D0100005D010B1B
:1031620002B801B80188018801B801B8015D015DAA
:1031720001050125015D0100005D01250105015DDB
:1031820001D201B80188015D015D015D01B801B89C
:10319200015D015D010501B801B8015D015D010537
:1031A2000105010B020B020B020B028040201008EA
:1031B20004020100100401030303030303030302D7
:1031C20002020202020202010101010101010102E5
:1031D20002020202020202010101010101010103D4
:1031E20003030303030303030303030303030301AF
:1031F20001010101010101020202020202020201B5
:10320200010101010101010303030303030303019C
:103212000101010101010102020202020202020095
:10322200010101010101010103030303030303037C
:103232000202020202020202010101010101010174
:103242000303030303030303020202020202020254
:10325200030303030303030301010101010101014C
:103262000202020202020202010101010101010144
:103272000202020202020202030303030303030324
:10328200010101010101010100030303030303031F
:103292000301010101010101010202020202020213
:1032A2000202020202020202020101010101010103
:1032B20001030303030303030301010101010101EC
:1032C20001020202020202020203030303030303D6
:1032D20003010101010101010102020202020202D3
:1032E20002010101010101010102020202020202C4
:1032F20002010101010101010103030303030303AD
:103302000302020202020202020303030303030393
:103312000301010101010101010202020202020292
:103322000203030303030303030202020202020273
:10333200020303030303030303010101010101016A
:10334200010202020202020202020202020202025C
:10335200020303030303030303000101010101014B
:103362000101020202020202020203030303030337
:10337200030302020202020202020101010101012F
:10338200010103030303030303030101010101011B
:103392000101030303030303030302020202020205
:1033A20002020202020202020202030303030303F5
:1033B20003030101010101010101020202020202F1
:1033C20002020303030303030303010101010101D9
:1033D20001010202020202020202030303030303C7
:1033E20003030101010101010101030303030303BB
:1033F20003030202020202020202030303030303A3
:1034020003030101010101010101020202020202A0
:103412000202020202020202020203030303030384
:103422000303020202020202020200680573057E21
:0834320005890594059F0500C2
:00000001FF
